:100000000C945A000C946F000C946F000C946F00C9
:100010000C946F000C946F000C946F000C946F00A4
:100020000C946F000C946F000C946F000C946F0094
:100030000C946F000C946F000C946F000C946F0084
:100040000C946F000C946F000C946F000C946F0074
:100050000C946F000C946F000C946F000C946F0064
:100060000C946F000C946F000C946F000C946F0054
:100070000C946F000C946F000C946F000C946F0044
:100080000C946F000C946F000C946F000C946F0034
:100090000C946F000C946F000C946F000C946F0024
:1000A0000C946F000C946F000C946F000C946F0014
:1000B0000C946F0011241FBECFEFD8E0DEBFCDBF80
:1000C00011E0A0E0B1E0ECECFCE002C005900D9284
:1000D000A631B107D9F70E9497030C9464060C94DB
:1000E0000000CF92DF92EF92FF926B017C019B01A7
:1000F000AC010E94BE039B01AC01C701B6010E9486
:100100008E059B01AC01C701B6010E94BE0320E031
:1001100030E040E85FE30E94BE03FF90EF90DF9085
:10012000CF9008958FEF8AB984B917B888B9089528
:100130004F925F926F927F928F929F92AF92BF92F7
:10014000CF92DF92EF92FF920F931F93CF93DF93A3
:10015000CDB7DEB72E970FB6F894DEBF0FBECDBF7A
:1001600069837A838B839C83CA01B9012701380193
:1001700029813A814B815C810E94BD03A8019701CE
:100180000E942F0469877A878B879C871E821D8235
:10019000812C912C540120E030E03E872D874DC00A
:1001A00020E030E040E05FE3C301B2010E948E0531
:1001B0006D837E838F839887A7019601C301B20167
:1001C0000E948E059B01AC0169817A818B819C81A3
:1001D0000E94BE030E9471006B017C018D859E858B
:1001E00001969E878D87BC01990F880B990B0E9401
:1001F000D904A30192010E948E059B01AC01698183
:100200007A818B819C810E94BE030E9471009B01B8
:10021000AC01C701B6010E94BE039B01AC016D8118
:100220007E818F8198850E948E059B01AC01C5015E
:10023000B4010E94BE034B015C012D853E85B901CE
:10024000330F880B990B0E94D9046B017C0120E0CD
:1002500030E040E85FE369857A858B859C850E9464
:10026000BD039B01AC01C701B6010E942A0488238B
:100270000CF496CFC501B4012E960FB6F894DEBFEC
:100280000FBECDBFDF91CF911F910F91FF90EF90E7
:10029000DF90CF90BF90AF909F908F907F906F90A6
:1002A0005F904F9008954F925F926F927F928F92DE
:1002B0009F92AF92BF92CF92DF92EF92FF920F93F5
:1002C0001F93CF93DF93CDB7DEB72A970FB6F8947D
:1002D000DEBF0FBECDBF6D837E838F839887CA013B
:1002E000B901270138012D813E814F8158850E9437
:1002F000BD03A80197010E942F0469837A838B8331
:100300009C831A861986812C912C540124C0A70144
:100310009601C301B2010E948E059B01AC016D8163
:100320007E818F8198850E94BE030E9471009B018F
:10033000AC01C301B2010E948E059B01AC01C50155
:10034000B4010E94BE034B015C0129853A852F5FF1
:100350003F4F3A87298729853A85B901330F880BA2
:10036000990B0E94D9046B017C019B01AC0169814E
:100370007A818B819C810E948905181644F2C501FF
:10038000B4012A960FB6F894DEBF0FBECDBFDF9141
:10039000CF911F910F91FF90EF90DF90CF90BF9082
:1003A000AF909F908F907F906F905F904F90089547
:1003B000609565B980958BB98FE19EE40197F1F75F
:1003C00000C00000089568E070E08FE490E00E94B3
:1003D000D80164E070E085E090E00E94D80162E01E
:1003E00070E085E090E00E94D801EDCFCF93DF93DD
:1003F000CDB7DEB7E2970FB6F894DEBF0FBECDBF24
:100400006B017C0120E030E0A9010E942A048823CE
:100410003CF446015701B7FAB094B7F8B09402C063
:10042000460157012AE93FE34CE156E4C501B40116
:100430000E948905181614F40E94E30184E1E2E0A9
:10044000F1E0DE01119601900D928A95E1F7FE012F
:10045000759684E1DF011D928A95E9F71AA619A61F
:100460001CA61BA6C501B4010E94A1047EA76DA70E
:100470006DA57EA5072E000C880B990B0E94D90450
:100480009B01AC01C501B4010E94BD0320E030E531
:1004900043EC57E40E948E050E94A1046FA778AB3D
:1004A00089AB9AAB6DA57EA5072E000C880B990B26
:1004B0000E94D9049B01AC01C501B4010E94BD0397
:1004C0002FE538E94CEC5DE30E942A04882344F4CC
:1004D00080E197E2A0E0B0E08FA798ABA9ABBAAB00
:1004E00009E010E07CC08FA598A9A9A9BAA918169F
:1004F00019061A061B06B4F56FA578A989A99AA949
:100500000F2EFAE08F2E912CA12CB12CF02DA501ED
:1005100094010E940F06660F771FE1E0F0E0EC0FF8
:10052000FD1FE60FF71F80819181F801EE0FFF1F7D
:1005300021E030E02C0F3D1FE20FF31F958B848BE1
:1005400089A59AA501969AA789A76FA578A989A9CF
:100550009AA9A50194010E940F062FA738AB49ABB9
:100560005AAB3BC08DA59EA518161906B4F58DA5EE
:100570009EA52AE030E0B9010E94FB05FC01EE0FC8
:10058000FF1F41E050E04C0F5D1FE40FF51F80811D
:100590009181F801EE0FFF1FE40FF51F958B848BFF
:1005A0008DA59EA5B9010E94FB057EA76DA789A513
:1005B0009AA501969AA789A70430110571F4F8014C
:1005C000EE0FFF1F81E090E08C0F9D1FE80FF91FD9
:1005D000848995898068958B848B01501109101648
:1005E00011060CF480CF20E030E0A901C701B6016C
:1005F0000E94890518160CF449C000E010E087C07D
:10060000EBA5FCA5EE0FFF1FA1E0B0E0AC0FBD1FF6
:10061000EA0FFB1F8489958968E070E00E94D80189
:10062000EBA5FCA53196EE0FFF1F21E030E02C0F6B
:100630003D1FE20FF31F8489958964E070E00E94FA
:10064000D801EBA5FCA53296EE0FFF1F41E050E06C
:100650004C0F5D1FE40FF51F8489958962E070E0FF
:100660000E94D801EBA5FCA53396EE0FFF1F81E099
:1006700090E08C0F9D1FE80FF91F8489958961E038
:1006800070E00E94D8010F5F1F4F02C000E010E031
:10069000023311050CF4B4CF3DC068E070E081E096
:1006A00090E00E94D801EBA5FCA5EE0FFF1FA1E092
:1006B000B0E0AC0FBD1FEA0FFB1F8489958964E091
:1006C00070E00E94D801EBA5FCA53196EE0FFF1F4C
:1006D00021E030E02C0F3D1FE20FF31F8489958944
:1006E00062E070E00E94D801EBA5FCA53296EE0F07
:1006F000FF1F41E050E04C0F5D1FE40FF51F8489A0
:10070000958961E070E00E94D8010F5F1F4F0233AE
:1007100011051CF28BA59CA5069734F48BA59CA50E
:1007200001969CA78BA75FCF1CA61BA65CCF0E943F
:10073000920080910001909101011AE0E12E17EDE5
:10074000F12E03E21CE320E030E040E251E460E0FF
:1007500070E080EA90E40E94530120E030E040E243
:1007600051E460E070E080EA90E40E94980060E06C
:1007700070E080E89FE30E94F6015058BB27AA274B
:100780000E94D5030C944F050E94410538F00E9449
:10079000480520F039F49F3F19F426F40C943E05E7
:1007A0000EF4E095E7FB0C943805E92F0E946005F4
:1007B00058F3BA17620773078407950720F079F496
:1007C000A6F50C9482050EF4E0950B2EBA2FA02D01
:1007D0000B01B90190010C01CA01A0011124FF27EE
:1007E000591B99F0593F50F4503E68F11A16F040E9
:1007F000A22F232F342F4427585FF3CF46953795E8
:100800002795A795F0405395C9F77EF41F16BA0BAC
:10081000620B730B840BBAF09150A1F0FF0FBB1F5A
:10082000661F771F881FC2F70EC0BA0F621F731FA3
:10083000841F48F4879577956795B795F7959E3F00
:1008400008F0B0CF9395880F08F09927EE0F979591
:10085000879508950E94140508F481E008950E9488
:1008600043040C944F050E94480558F00E9441052E
:1008700040F029F45F3F29F00C94380551110C9495
:1008800083050C943E050E94600568F39923B1F33B
:10089000552391F3951B550BBB27AA2762177307A6
:1008A000840738F09F5F5F4F220F331F441FAA1F3A
:1008B000A9F335D00E2E3AF0E0E832D091505040F6
:1008C000E695001CCAF72BD0FE2F29D0660F771FA4
:1008D000881FBB1F261737074807AB07B0E809F08A
:1008E000BB0B802DBF01FF2793585F4F3AF09E3F0F
:1008F000510578F00C9438050C9483055F3FE4F3C0
:10090000983ED4F3869577956795B795F7959F5F51
:10091000C9F7880F911D9695879597F90895E1E09D
:10092000660F771F881FBB1F621773078407BA07FC
:1009300020F0621B730B840BBA0BEE1F88F7E09557
:1009400008950E94A8046894B1110C948305089539
:100950000E94680588F09F5798F0B92F9927B751E2
:10096000B0F0E1F0660F771F881F991F1AF0BA9553
:10097000C9F714C0B13091F00E948205B1E008952A
:100980000C948205672F782F8827B85F39F0B93F1C
:10099000CCF3869577956795B395D9F73EF4909506
:1009A0008095709561957F4F8F4F9F4F0895E89484
:1009B00009C097FB3EF490958095709561957F4FA7
:1009C0008F4F9F4F9923A9F0F92F96E9BB27939555
:1009D000F695879577956795B795F111F8CFFAF465
:1009E000BB0F11F460FF1BC06F5F7F4F8F4F9F4F96
:1009F00016C0882311F096E911C0772321F09EE8F4
:100A0000872F762F05C0662371F096E8862F70E059
:100A100060E02AF09A95660F771F881FDAF7880F33
:100A20009695879597F90895990F0008550FAA0B89
:100A3000E0E8FEEF16161706E807F907C0F01216F1
:100A40001306E407F50798F0621B730B840B950BF4
:100A500039F40A2661F0232B242B252B21F4089549
:100A60000A2609F4A140A6958FEF811D811D0895E6
:100A700097F99F6780E870E060E008959FEF80EC51
:100A8000089500240A9416161706180609060895F4
:100A900000240A9412161306140605060895092E5A
:100AA0000394000C11F4882352F0BB0F40F4BF2BC9
:100AB00011F460FF04C06F5F7F4F8F4F9F4F089509
:100AC00057FD9058440F551F59F05F3F71F04795FF
:100AD000880F97FB991F61F09F3F79F087950895E4
:100AE000121613061406551FF2CF4695F1DF08C003
:100AF000161617061806991FF1CF86957105610520
:100B000008940895E894BB2766277727CB0197F9C7
:100B100008950E94140508F48FEF08950E94A1051E
:100B20000C944F050E94410538F00E94480520F0C2
:100B3000952311F00C9438050C943E0511240C9467
:100B400083050E94600570F3959FC1F3950F50E0F7
:100B5000551F629FF001729FBB27F00DB11D639F6F
:100B6000AA27F00DB11DAA1F649F6627B00DA11D15
:100B7000661F829F2227B00DA11D621F739FB00DBB
:100B8000A11D621F839FA00D611D221F749F33272B
:100B9000A00D611D231F849F600D211D822F762FC4
:100BA0006A2F11249F5750409AF0F1F088234AF0A1
:100BB000EE0FFF1FBB1F661F771F881F915050400D
:100BC000A9F79E3F510580F00C9438050C948305DD
:100BD0005F3FE4F3983ED4F3869577956795B79594
:100BE000F795E7959F5FC1F7FE2B880F911D9695AE
:100BF000879597F9089597FB072E16F4009407D070
:100C000077FD09D00E942E0607FC05D03EF4909592
:100C100081959F4F0895709561957F4F0895052E9A
:100C200097FB1EF400940E94260657FD07D00E94F1
:100C3000420607FC03D04EF40C94260650954095CE
:100C4000309521953F4F4F4F5F4F08959095809578
:100C5000709561957F4F8F4F9F4F0895AA1BBB1BC7
:100C600051E107C0AA1FBB1FA617B70710F0A61BAC
:100C7000B70B881F991F5A95A9F780959095BC01CD
:100C8000CD010895A1E21A2EAA1BBB1BFD010DC0C8
:100C9000AA1FBB1FEE1FFF1FA217B307E407F5072C
:100CA00020F0A21BB30BE40BF50B661F771F881F08
:100CB000991F1A9469F760957095809590959B019E
:0C0CC000AC01BD01CF010895F894FFCFF6
:100CCC0001007E0030006D00790033005B005F0096
:060CDC0070007F007B00A8
:00000001FF
