:100000000C945A000C9464000C9464000C946400EA
:100010000C9464000C9464000C9464000C946400D0
:100020000C9464000C9464000C9464000C946400C0
:100030000C9464000C9464000C9464000C946400B0
:100040000C9464000C9464000C9464000C946400A0
:100050000C9464000C9464000C9464000C94640090
:100060000C9464000C9464000C9464000C94640080
:100070000C9464000C9464000C9464000C94640070
:100080000C9464000C9464000C9464000C94640060
:100090000C9464000C9464000C9464000C94640050
:1000A0000C9464000C9464000C9464000C94640040
:1000B0000C94640011241FBECFEFD8E0DEBFCDBF8B
:1000C0000E9410010C9463030C940000CF92DF9205
:1000D000EF92FF926B017C019B01AC010E94320107
:1000E0009B01AC01C701B6010E94D2029B01AC0189
:1000F000C701B6010E94320120E030E040E85FE332
:100100000E943201FF90EF90DF90CF9008958FEF23
:100110008AB984B908954F925F926F927F928F92BD
:100120009F92AF92BF92CF92DF92EF92FF920F9386
:100130001F93CF93DF93CDB7DEB72A970FB6F8940E
:10014000DEBF0FBECDBF6D837E838F839887CA01CC
:10015000B901270138012D813E814F8158850E94C8
:100160003101A80197010E949E0169837A838B83E4
:100170009C831A861986812C912C540124C0A701D6
:100180009601C301B2010E94D2029B01AC016D81B4
:100190007E818F8198850E9432010E9466009B01BA
:1001A000AC01C301B2010E94D2029B01AC01C501A6
:1001B000B4010E9432014B015C0129853A852F5F11
:1001C0003F4F3A87298729853A85B901330F880B34
:1001D000990B0E9441026B017C019B01AC0169817A
:1001E0007A818B819C810E94CD02181644F2C50150
:1001F000B4012A960FB6F894DEBF0FBECDBFDF91D3
:10020000CF911F910F91FF90EF90DF90CF90BF9013
:10021000AF909F908F907F906F905F904F900895D8
:10022000EF92FF920F931F930E94870017E1E12E38
:1002300017EBF12E01ED18E320E030E040E050E450
:1002400060E070E0CB010E948B0020E825B90E949D
:1002500010026BB980E090E01F910F91FF90EF903A
:1002600008955058BB27AA270E9449010C94930275
:100270000E94850238F00E948C0220F039F49F3FE2
:1002800019F426F40C9482020EF4E095E7FB0C942A
:100290007C02E92F0E94A40258F3BA176207730781
:1002A0008407950720F079F4A6F50C94C6020EF4A5
:1002B000E0950B2EBA2FA02D0B01B90190010C0176
:1002C000CA01A0011124FF27591B99F0593F50F48E
:1002D000503E68F11A16F040A22F232F342F4427E6
:1002E000585FF3CF469537952795A795F0405395DE
:1002F000C9F77EF41F16BA0B620B730B840BBAF0AE
:100300009150A1F0FF0FBB1F661F771F881FC2F718
:100310000EC0BA0F621F731F841F48F4879577952C
:100320006795B795F7959E3F08F0B0CF9395880FE6
:1003300008F09927EE0F9795879508950E94B201CE
:100340000C9493020E948C0258F00E94850240F0A7
:1003500029F45F3F29F00C947C0251110C94C702E0
:100360000C9482020E94A40268F39923B1F35523EE
:1003700091F3951B550BBB27AA27621773078407B8
:1003800038F09F5F5F4F220F331F441FAA1FA9F34E
:1003900035D00E2E3AF0E0E832D091505040E6953C
:1003A000001CCAF72BD0FE2F29D0660F771F881F9D
:1003B000BB1F261737074807AB07B0E809F0BB0B90
:1003C000802DBF01FF2793585F4F3AF09E3F5105A4
:1003D00078F00C947C020C94C7025F3FE4F3983EE3
:1003E000D4F3869577956795B795F7959F5FC9F78D
:1003F000880F911D9695879597F90895E1E0660F0E
:10040000771F881FBB1F621773078407BA0720F086
:10041000621B730B840BBA0BEE1F88F7E0950895EF
:100420000E94AC0288F09F5798F0B92F9927B751D6
:10043000B0F0E1F0660F771F881F991F1AF0BA9588
:10044000C9F714C0B13091F00E94C602B1E008951E
:100450000C94C602672F782F8827B85F39F0B93F10
:10046000CCF3869577956795B395D9F73EF490953B
:100470008095709561957F4F8F4F9F4F0895E894B9
:1004800009C097FB3EF490958095709561957F4FDC
:100490008F4F9F4F9923A9F0F92F96E9BB2793958A
:1004A000F695879577956795B795F111F8CFFAF49A
:1004B000BB0F11F460FF1BC06F5F7F4F8F4F9F4FCB
:1004C00016C0882311F096E911C0772321F09EE829
:1004D000872F762F05C0662371F096E8862F70E08F
:1004E00060E02AF09A95660F771F881FDAF7880F69
:1004F0009695879597F9089597F99F6780E870E03A
:1005000060E008959FEF80EC089500240A94161689
:10051000170618060906089500240A9412161306F1
:10052000140605060895092E0394000C11F488237F
:1005300052F0BB0F40F4BF2B11F460FF04C06F5F9B
:100540007F4F8F4F9F4F089557FD9058440F551F71
:1005500059F05F3F71F04795880F97FB991F61F045
:100560009F3F79F087950895121613061406551FBC
:10057000F2CF4695F1DF08C0161617061806991F28
:10058000F1CF86957105610508940895E894BB271D
:1005900066277727CB0197F908950E943F0308F457
:1005A0008FEF08950E94E5020C9493020E94850249
:1005B00038F00E948C0220F0952311F00C947C02FC
:1005C0000C94820211240C94C7020E94A40270F3BE
:1005D000959FC1F3950F50E0551F629FF001729FE8
:1005E000BB27F00DB11D639FAA27F00DB11DAA1FF7
:1005F000649F6627B00DA11D661F829F2227B00D44
:10060000A11D621F739FB00DA11D621F839FA00DCE
:10061000611D221F749F3327A00D611D231F849F1E
:10062000600D211D822F762F6A2F11249F57504075
:100630009AF0F1F088234AF0EE0FFF1FBB1F661FF0
:10064000771F881F91505040A9F79E3F510580F0B9
:100650000C947C020C94C7025F3FE4F3983ED4F301
:10066000869577956795B795F795E7959F5FC1F75D
:10067000FE2B880F911D9695879597F90895990FF0
:100680000008550FAA0BE0E8FEEF16161706E8075C
:10069000F907C0F012161306E407F50798F0621B7D
:1006A000730B840B950B39F40A2661F0232B242B52
:1006B000252B21F408950A2609F4A140A6958FEF71
:0A06C000811D811D0895F894FFCFFD
:00000001FF
